:100000000C942D000C9495000C9495000C94950084
:100010000C9495000C9495000C9495000C9495000C
:100020000C9495000C9495000C9495000C9457003A
:100030000C9495000C9495000C9495000C949500EC
:100040000C9495000C9495000C9495000C949500DC
:100050000C94950000600062800011241FBECFE563
:10006000D8E0DEBFCDBFE4E5F0E040E017C0B591D9
:10007000A59135912591059107FD0CC0959185912C
:10008000EF01F92FE82F05900D92A217B307D9F7CA
:10009000FE0104C01D92A217B307E1F7E935F4078A
:0E00A00031F70E948C000C945500F894FFCFAD
:1000AE001F920F920FB60F9211248F939F938091F0
:1000BE0060009091610001969093610080936000C2
:1000CE004F9741F495B381E0892785BB109261006B
:1000DE00109260009F918F910F900FBE0F901F9006
:0200EE00189563
:1000F0006111BB9A93B7880F880F880F892B90E105
:10010000699FB0011124682B63BF83B7482B43BF9D
:0801100089B7836089BF0895DF
:10011800A09AA89845E060E080E00E947800789472
:02012800FFCF07
:04012A000C94000031
:00000001FF
